:020000040000FA
:060000000A128A11EE2F26
:100010000A34003483120313A101F81F1028112899
:100020001828F709F809F70A0319F80AA101A10A23
:10003000FA1F1B281C282528F909FA09F90A0319AF
:10004000FA0A0130FB007B08A106A201A301770890
:10005000780403192C282D286428A001A00A3B2825
:1000600001300310F70DF80DFF3E031D312801305C
:10007000FB007B08A007F81F3E283F2830280130EE
:100080000310A20DA30DFF3E031D402878087A023D
:10009000031D4C2877087902031C4F285028572845
:1000A0007708F9027808031CFA03FA0222140130D7
:1000B0000310F80CF70CFF3E031D58280130A00276
:1000C000031D632864283F2821080319682869282C
:1000D0006E28A209A309A20A0319A30A2308F8009B
:1000E0002208F700080083160313C100A130A50001
:1000F0002508AE00D72F2530440603198028812813
:100100008D284408A5004108840025088313800039
:100110000130A5002508C107D72FB501B601B301ED
:10012000B401200884000A168A1500200A128A11D8
:100130000A168A15BC240A128A11031CA028A128B9
:10014000E12883160313B501B6010A30F000003030
:10015000F100831603133608F3003508F2000A167F
:100160008A1509250A128A11710883160313B6002D
:100170007008B500200884000A168A1500200A12AB
:100180008A11D03EA500FF3003180030A6002508D4
:10019000B5070318B60A2608B6070130A5002508DA
:1001A000A007200884000A168A1500200A128A1166
:1001B0000A168A15BC240A128A110318E028E128BD
:1001C000A52883160313200884000A168A15002028
:1001D0000A128A112E3A031DEE28EF28342934170B
:1001E0000130A5002508A007C201C30123290A3058
:1001F000F0000030F100831603134308F3004208B7
:10020000F2000A168A1509250A128A117108831646
:100210000313C3007008C200200884000A168A1560
:1002200000200A128A11D03EA500FF3003180030CA
:10023000A6002508C2070318C30A2608C307013011
:10024000A5002508A007200884000A168A150020AA
:100250000A128A110A168A15BC240A128A11031876
:1002600032293329F7283A29C201C30134163A2921
:1002700034155629013083160313A007FF302007D9
:1002800084000A168A1500200A128A11C400A500EB
:10029000A6012608003A03194E29D72F2508003A4F
:1002A0000319E92F663A03193829D72F003033058F
:1002B000A50007303405A600250826040319612986
:1002C0006229142F341E652966296A290630C20066
:1002D0000030C3002E08840083130008BD00840A88
:1002E0000008BE00840A0008BF00840A0008C0009D
:1002F0000430A5002508AE074008F3003F08F200CF
:100300003E08F1003D08F0000030F7000030F60034
:100310000030F5000030F4000A168A119A200A1203
:100320008A11031894299529B229831603134008CA
:10033000F3003F08F2003E08F1003D08F0000A1605
:100340008A15A3240A128A11730883160313C000A6
:100350007208BF007108BE007008BD000330B3040E
:100360000030B40483160313BB01BC014008F30042
:100370003F08F2003E08F1003D08F0000030F700B1
:100380000030F6000030F5000030F4000A168A153F
:10039000A1260A128A110318CE29CF29BF2A0310D9
:1003A000831603133F0D400D823EBB00FF30031840
:1003B0000030BC00FF30BB070318BC0AFF30BC078D
:1003C0000330F0000030F1003C08F3003B08F2007D
:1003D0000A168A1509250A128A1171088316031351
:1003E000BC007008BB000A30F7000030F8003C0881
:1003F000FA003B08F9000A128A110A200A128A112F
:10040000780883160313BC007708BB00BC1F092AB9
:100410000A2A102AFF30BB070318BC0AFF30BC07AA
:100420003B03FF3A0A128A1540210A128A118312ED
:100430000313410883160313BA0083120313400801
:1004400083160313B900831203133F0883160313A3
:10045000B800831203133E0883160313B700400845
:1004600083120313A700831603133F088312031399
:10047000A600831603133E0883120313A5008316F8
:1004800003133D0883120313A400831603133A08D1
:1004900083120313AB00831603133908831203136B
:1004A000AA0083160313380883120313A9008316C6
:1004B0000313370883120313A8000A128A159F2416
:1004C0000A128A1183120313270883160313BA0032
:1004D00083120313260883160313B9008312031330
:1004E000250883160313B800831203132408831608
:1004F0000313B7003A08F3003908F2003808F10096
:100500003708F0003F30F7008030F6000030F5008B
:100510000030F4000A168A119A200A128A11031870
:10052000922A932A9C2AFF3083160313BB070318D1
:10053000BC0AFF30BC07BF2A831603133A08F30036
:100540003908F2003808F1003708F0004130F700B0
:100550002030F6000030F5000030F4000A168A1151
:100560009A200A128A11031CB62AB72ABF2A013020
:1005700083160313BB070318BC0A0030BC0783169D
:1005800003134308803AFF0080307F02031DCA2A0C
:100590000D3042020318CD2ACE2A152B83160313E1
:1005A00042080A168A116D230A128A118312031354
:1005B0004108D5004008D4003F08D3003E08D200CF
:1005C00083160313400883120313D9008316031301
:1005D0003F0883120313D800831603133E088312C7
:1005E0000313D700831603133D0883120313D600A9
:1005F0000A168A1178250A128A11831203135508E4
:1006000083160313C00083120313540883160313C5
:10061000BF0083120313530883160313BE00831213
:100620000313520883160313BD00831603133C08FB
:10063000803AFF0080307F02031D202B0A303B02EE
:100640000318232B242B752B831603134008F30068
:100650003F08F2003E08F1003D08F0000030F700CE
:100660000030F6000030F5000030F4000A168A155C
:10067000A1260A128A1103183E2B3F2BE72B831663
:100680000313400883120313D400831603133F0897
:1006900083120313D300831603133E08831203133C
:1006A000D200831603133D0883120313D1000A12EC
:1006B0008A1506200A128A11831203135408530460
:1006C00052045104031D652B662BE72B831603137D
:1006D0003C08803AFF0080307F02031D712B0230FE
:1006E0003B02031C742B752BE72B831603133A086C
:1006F000F3003908F2003808F1003708F000403004
:10070000F7008930F6007030F5005F30F4000A160B
:100710008A119A200A128A1103188F2B902B992B79
:10072000F73083160313BB070318BC0AFF30BC075E
:10073000A12BF83083160313BB070318BC0AFF3044
:10074000BC073B080A128A1540210A128A1183123B
:100750000313410883160313BA00831203134008DE
:1007600083160313B900831203133F088316031380
:10077000B800831203133E0883160313B700400822
:10078000F3003F08F2003E08F1003D08F0003A088F
:10079000F7003908F6003808F5003708F4000A12A7
:1007A0008A1582200A128A11730883160313B20075
:1007B0007208B1007108B0007008AF000030C000CE
:1007C0000030BF000030BE000030BD006B2C83162F
:1007D0000313400883120313D400831603133F0846
:1007E00083120313D300831603133E0883120313EB
:1007F000D200831603133D0883120313D1000A129B
:100800008A1506200A128A118312031354088316CC
:100810000313B20083120313530883160313B100AA
:1008200083120313520883160313B00083120313B9
:10083000510883160313AF003208F3003108F200A9
:100840003008F1002F08F00000300A168A113C2110
:100850000A128A11730883120313E9007208E80070
:100860007108E7007008E60083160313400883123E
:100870000313ED00831603133F0883120313EC00E8
:10088000831603133E0883120313EB00831603132E
:100890003D0883120313EA000A168A15E5240A129A
:1008A0008A1183120313690883160313C00083128D
:1008B0000313680883160313BF008312031367082A
:1008C00083160313BE0083120313660883160313F3
:1008D000BD00BB01BC01C401C40A4408A50001302D
:1008E0000310A50DFF3E031D702C0310250D693E5E
:1008F00084000A168A1500200A128A11A6000A1618
:100900008A1500200A128A11A7000A168A150020EB
:100910000A128A11A8000A168A1500200A128A11E2
:10092000A90029083202031D9F2C28083102031D4B
:100930009F2C27083002031D9F2C26082F02031826
:10094000A22CA32CA42CAE2C0130A5002508C40792
:100950000A304406031DAD2CAE2C6D2C4408420712
:10096000A50043080318430AA6003B082507A70073
:100970003C0803183C0A2607A8002708B5022808E7
:10098000031CB603B602420843040319C82CC92C41
:10099000CF2CFF30B5070318B60AFF30B607033077
:1009A0003305A50000303405A600250826040319E8
:1009B000DA2CDB2CF02CFF30B5070318B60AFF3019
:1009C000B607F02C203083160313A50041088400DD
:1009D0002508831380000130A5002508C107DB2C02
:1009E0003608803AFF0080307F02031DF92C013069
:1009F00035020318FC2CFD2CE22C03308316031364
:100A00003305A50000303405A60025082604031987
:100A10000A2D0B2D7D2D2D30A500410884002508C1
:100A2000831380000130A5002508C1077D2D4408EF
:100A3000A50001300310A50DFF3E031D1A2D031064
:100A4000250D693E84000A168A1500200A128A11B3
:100A5000F0000A168A1500200A128A11F1000A16FF
:100A60008A1500200A128A11F2000A168A1500203F
:100A70000A128A11F3003208F7003108F600300834
:100A8000F5002F08F4000A168A1134200A128A1180
:100A9000730883160313BA007208B9007108B8000E
:100AA0007008B7000030F3000030F2000030F100B1
:100AB0000A30F0003A08F7003908F6003808F50067
:100AC0003708F4000A168A15EF260A128A117308ED
:100AD00083160313BA007208B9007108B8007008D1
:100AE000B7003708303EA50041088400250883136D
:100AF00080000130A5002508C1070130C402440A66
:100B0000031D832D842D172D982D3030831603134C
:100B1000A500410884002508831380000130A5004A
:100B20002508C107FF30BB070318BC0AFF30BC070C
:100B30003C08803AFF0080307F02031DA12D013068
:100B40003B020318A42DA52D852D831603134308FE
:100B5000803AFF0080307F02031DB02D0930420231
:100B6000031CB32DB42DBB2D083083160313A50031
:100B70002508C400C12D831603134208A5002508CB
:100B8000C4004408A500A6012508C2022608031CCB
:100B9000C303C30244080319CE2DCF2DDA2D2E3006
:100BA000A500410884002508831380000130A500BA
:100BB0002508C10744080A128A1540210A128A1121
:100BC00083120313410883160313AD00831203132A
:100BD000400883160313AC00831203133F088316E7
:100BE0000313AB00831203133E0883160313AA00FA
:100BF0002D0883120313AB00831603132C088312F2
:100C00000313AA00831603132B0883120313A900EE
:100C1000831603132A0883120313A80083160313F1
:100C2000400883120313A700831603133F0883129F
:100C30000313A600831603133E0883120313A500B3
:100C4000831603133D0883120313A4000A128A15A6
:100C50009F240A128A11831203132708D40026083E
:100C6000D3002508D2002408D1000A128A150620D4
:100C70000A128A1183120313540883160313B20055
:100C800083120313530883160313B1008312031353
:100C9000520883160313B0008312031351088316FE
:100CA0000313AF00F42E4408A50001300310A50D76
:100CB000FF3E031D562E0310250D693E84000A16C3
:100CC0008A1500200A128A11F0000A168A150020DF
:100CD0000A128A11F1000A168A1500200A128A11D6
:100CE000F2000A168A1500200A128A11F30032084F
:100CF000F7003108F6003008F5002F08F4000A1656
:100D00008A1134200A128A11730883160313BA0059
:100D10007208B9007108B8007008B7000030F3001D
:100D20000030F2000030F1000A30F0003A08F7001D
:100D30003908F6003808F5003708F4000A168A1555
:100D4000EF260A128A11730883160313BA00720879
:100D5000B9007108B8007008B7003708303EA50028
:100D6000410884002508831380000130A500250870
:100D7000C1074408A50001300310A50DFF3E031D67
:100D8000BC2E0310250D693E84000A168A1500202A
:100D90000A128A11F0000A168A1500200A128A1116
:100DA000F1000A168A1500200A128A11F2000A16AA
:100DB0008A1500200A128A11F3003208F700310860
:100DC000F6003008F5002F08F4000A168A15EF2601
:100DD0000A128A11730883160313B2007208B10055
:100DE0007108B0007008AF000130C402440A031D4E
:100DF000FA2EFB2E532E0D2F3030A5004108840013
:100E00002508831380000130A5002508C107FF30A5
:100E1000C2070318C30AFF30C30742084304031D77
:100E2000122F132FFC2ED72F42084304031D192F16
:100E30001A2F282F3208310430042F04031D212FCC
:100E4000222F282F0130C2070318C30A0030C3071E
:100E50004308803A803C031D2F2F420844020318A8
:100E6000322F332F3A2F831603134208A50025088B
:100E7000C400522F831603134308803AA500803024
:100E80002502031D452F440842020318482F492F0D
:100E9000522F831603134408A500A6012508C2009B
:100EA0002608C30083160313350836040319592F87
:100EB0005A2F6C2F03303305A50000303405A600EF
:100EC000250826040319652F662F6C2FFF30B50700
:100ED0000318B60AFF30B607341F6F2F702F8B2F01
:100EE0004308803AA5003608803A2502031D7A2F70
:100EF0003508420203187D2F7E2F872F8316031398
:100F00004208B5024308031CB603B6028B2F8316B2
:100F10000313B501B6013608803A803C031D922FB9
:100F2000350844020318952F962FA22F831603131A
:100F30004408A500A6012508B5022608031CB6032F
:100F4000B602A62F83160313B501B6013508360481
:100F50000319AB2FAC2FC32F2030A500410884000C
:100F60002508831380000130A5002508C107FF3044
:100F7000B5070318B60AFF30B60735083604031D57
:100F8000C22FC32FAC2F03303305A500003034052A
:100F9000A600250826040319CE2FCF2FD72F2D30DA
:100FA000A5004108840025088313800088280130AB
:100FB000A007FF30200784000A168A1500200A12B5
:100FC0008A11A5002508C4004408031DE82FE92F55
:100FD0007B284108840083138001080083160313D3
:100FE0000A128A1108200A128A11E8000A128A11CC
:100FF00009200A128A11E90083010A168A11F629CA
:10100C00031083120313530D540DD5005508DB0048
:10101C005B08031D122813281C280030D400003054
:10102C00D3000030D2000030D10081285108D50007
:10103C005208D6005308D7005408D8001F300310AC
:10104C00D80CD70CD60CD50CFF3E031D2528550803
:10105C00D9005908DA00D317FF30D105FF30D2057B
:10106C00FF30D3050030D4059630DB02DB1F3F2860
:10107C0040285A285B08803A973E03184628472890
:10108C004828132801300310D40CD30CD20CD10CEB
:10109C00FF3E031D49280130D5005508DB07031D11
:1010AC00582859284828712820305B02031C5F28D7
:1010BC0060286C2813280130D5000310D10DD20DF7
:1010CC00D30DD40DD50B63280130DB025B08031D57
:1010DC007028712861285A080319752876288128E8
:1010EC00D109D209D309D409D10A0319D20A031997
:1010FC00D30A0319D40A08000310720D730DF800FB
:10110C00780883120313A5002508031D8E288F2849
:10111C0098280030F3000030F2000030F10000306D
:10112C00F0003F290310760D770DF8007808A40025
:10113C002408031DA228A328A4288F28F217FF3007
:10114C00F005FF30F105FF30F2050030F305F6171E
:10115C00FF30F405FF30F505FF30F6050030F705DC
:10116C000030A3000030A2000030A1000030A0002D
:10117C007F30A502A0302407F8007808A5022030A3
:10118C00F8007808A4000130F8000310A00DA10DA0
:10119C00A20DA30DF80BCB2877087302031DE028D2
:1011AC0076087202031DE02875087102031DE02801
:1011BC0074087002031CE328E428F3287408F00276
:1011CC007508031C750FF1027608031C760FF202EA
:1011DC007708031C770FF30220140130F80003107A
:1011EC00F00DF10DF20DF30DF80BF5280130A40202
:1011FC00031D01290229C928A51F05290629202913
:10120C002508803A9F3E03180C290D290E298F289A
:10121C0001300310A30CA20CA10CA00CFF3E031D6B
:10122C000F290130F8007808A507031D1E291F2976
:10123C000E29372920302502031C2529262932297D
:10124C008F280130F8000310A00DA10DA20DA30DE5
:10125C00F80B29290130A5022508031D3629372949
:10126C0027292308F3002208F2002108F1002008A6
:10127C00F000080083120313D000D01F4629472921
:10128C00F42AD009D00A5008803A123E031C4F2988
:10129C005029382A0A30F7000030F8005008F200C4
:1012AC00F301F21BF3036430F0000030F1000A1676
:1012BC008A1543270A128A157108FA007008F9007A
:1012CC000A128A110A200A128A157708831203134C
:1012DC00C20001300310C20DFF3E031D7029031024
:1012EC00420D593E84000A168A1500200A128A15EE
:1012FC00C3000A168A1500200A128A15C4000A16A1
:10130C008A1500200A128A15C5000A168A150020B3
:10131C000A128A15C6004608A7004508A60044080C
:10132C00A5004308A4006430F7000030F800500812
:10133C00F900FA01F91BFA030A128A110A200A129F
:10134C008A15770883120313C70001300310C70DE9
:10135C00FF3E031DAC290310470D7D3E84000A1689
:10136C008A1500200A128A15C8000A168A15002050
:10137C000A128A15C9000A168A1500200A128A1543
:10138C00CA000A168A1500200A128A15CB004B08CF
:10139C00AB004A08AA004908A9004808A8000A128C
:1013AC008A159F240A128A15831203132708CF006B
:1013BC002608CE002508CD002408CC000A30F00009
:1013CC000030F1005008F200F301F21BF3030A168F
:1013DC008A1543270A128A15700883120313C20058
:1013EC0001300310C20DFF3E031DF7290310420DFF
:1013FC00353E84000A168A1500200A128A15C3008D
:10140C000A168A1500200A128A15C4000A168A15B3
:10141C0000200A128A15C5000A168A1500200A1225
:10142C008A15C6004608A7004508A6004408A50072
:10143C004308A4004F08AB004E08AA004D08A900B1
:10144C004C08A8000A128A159F240A128A158312C6
:10145C0003132708C1002608C0002508BF00240874
:10146C00BE009E2C5008803A753E031C3E2A3F2A33
:10147C00C72A0A30F0000030F1005008F200F301E6
:10148C00F21BF3030A168A1543270A128A157008F1
:10149C0083120313C20001300310C20DFF3E031D63
:1014AC00522A0310420D353E84000A168A1500207C
:1014BC000A128A15C3000A168A1500200A128A1508
:1014CC00C4000A168A1500200A128A15C5000A16CD
:1014DC008A1500200A128A15C6004608A70045087E
:1014EC00A6004408A5004308A4000A30F700003009
:1014FC00F8005008F900FA01F91BFA030A128A11D4
:10150C000A200A128A15770883120313C7000130C8
:10151C000310C70DFF3E031D8E2A0310470D593EC5
:10152C0084000A168A1500200A128A15C8000A16A9
:10153C008A1500200A128A15C9000A168A1500207D
:10154C000A128A15CA000A168A1500200A128A1570
:10155C00CB004B08AB004A08AA004908A900480870
:10156C00A8000A128A159F240A128A1583120313E3
:10157C002708C1002608C0002508BF002408BE00AB
:10158C009E2C5008C20001300310C20DFF3E031DFB
:10159C00CA2A0310420D353E84000A168A15002013
:1015AC000A128A15C3000A168A1500200A128A1517
:1015BC00C4000A168A1500200A128A15C5000A16DC
:1015CC008A1500200A128A15C6004608C100450873
:1015DC00C0004408BF004308BE009E2C5008803A4F
:1015EC00123E031CFA2AFB2AE32B0A30F7000030C8
:1015FC00F8005008F200F301F21BF3036430F00022
:10160C000030F1000A168A1543270A128A15710850
:10161C00FA007008F9000A128A110A200A128A15B7
:10162C00770883120313C20001300310C20DFF3E72
:10163C00031D1B2B0310420D253E84000A168A1530
:10164C0000200A128A15C3000A168A1500200A12F5
:10165C008A15C4000A168A1500200A128A15C500BC
:10166C000A168A1500200A128A15C6004608A70019
:10167C004508A6004408A5004308A4006430F70000
:10168C000030F8005008F900FA01F91BFA030A12AD
:10169C008A110A200A128A15770883120313C700CD
:1016AC0001300310C70DFF3E031D572B0310470DD0
:1016BC00493E84000A168A1500200A128A15C800B1
:1016CC000A168A1500200A128A15C9000A168A15EC
:1016DC0000200A128A15CA000A168A1500200A125E
:1016EC008A15CB004B08AB004A08AA004908A90090
:1016FC004808A8000A128A159F240A128A15831218
:10170C0003132708CF002608CE002508CD00240897
:10171C00CC000A30F0000030F1005008F200F30168
:10172C00F21BF3030A168A1543270A128A1570084E
:10173C0083120313C20001300310C20DFF3E031DC0
:10174C00A22B0310420D013E84000A168A150020BC
:10175C000A128A15C3000A168A1500200A128A1565
:10176C00C4000A168A1500200A128A15C5000A162A
:10177C008A1500200A128A15C6004608A7004508DB
:10178C00A6004408A5004308A4004F08AB004E086F
:10179C00AA004D08A9004C08A8000A128A159F241B
:1017AC000A128A15831203132708C1002608C000E9
:1017BC002508BF002408BE009E2C5008803A753EB8
:1017CC00031CE92BEA2B722C0A30F0000030F100DC
:1017DC005008F200F301F21BF3030A168A15432793
:1017EC000A128A15700883120313C2000130031009
:1017FC00C20DFF3E031DFD2B0310420D013E840064
:10180C000A168A1500200A128A15C3000A168A15B0
:10181C0000200A128A15C4000A168A1500200A1222
:10182C008A15C5000A168A1500200A128A15C600E8
:10183C004608A7004508A6004408A5004308A400D4
:10184C000A30F7000030F8005008F900FA01F91BD3
:10185C00FA030A128A110A200A128A1577088312CF
:10186C000313C70001300310C70DFF3E031D392CB5
:10187C000310470D253E84000A168A1500200A1213
:10188C008A15C8000A168A1500200A128A15C90082
:10189C000A168A1500200A128A15CA000A168A1519
:1018AC0000200A128A15CB004B08AB004A08AA008C
:1018BC004908A9004808A8000A128A159F240A1290
:1018CC008A15831203132708C1002608C0002508B7
:1018DC00BF002408BE009E2C5008C200013003102B
:1018EC00C20DFF3E031D752C0310420D013E8400FA
:1018FC000A168A1500200A128A15C3000A168A15C0
:10190C0000200A128A15C4000A168A1500200A1231
:10191C008A15C5000A168A1500200A128A15C600F7
:10192C004608C1004508C0004408BF004308BE007B
:10193C0008008312031327088039AC002C08B1006F
:10194C002708AC002C07AD002D08B700A61FAF2C44
:10195C00B02CB12C371437080319B52CB62CC52C68
:10196C00370A031DBA2CBB2CC32C0030A700003047
:10197C00A6000030A5000030A400A617CD2C003026
:10198C00A7000030A6000030A5000030A4002B08F2
:10199C008039AC002C08B1062B08AC002C07AD002C
:1019AC002D08B600AA1FDB2CDC2CDD2C36143608D7
:1019BC000319E12CE22CF12C360A031DE62CE72C42
:1019CC00EF2C0030AB000030AA000030A900003032
:1019DC00A800AA17F92C0030AB000030AA00003088
:1019EC00A9000030A80036080319FD2CFE2C032D8D
:1019FC003708031D022D032D0C2D0030A7000030DD
:101A0C00A6000030A5000030A400FF2F2408AC0075
:101A1C002C08F0002A080A168A110D200A128A15C1
:101A2C00710883120313BD007008BC003C08AC00A5
:101A3C00AD01AE01AF012F08B5002E08B4002D0882
:101A4C00B3002C08B2003D08AC00AD01AE01AF01F3
:101A5C002F08BB002E08BA002D08B9002C08B800BE
:101A6C002508AC002C08F00029080A168A110D2054
:101A7C000A128A15710883120313BD007008BC008A
:101A8C003C08AC00AD01AE01AF012C08B2072D082B
:101A9C0003110318013E0319542DB3072E0803112B
:101AAC000318013E03195B2DB4072F08031103180B
:101ABC00013E0319622DB5073D08AC00AD01AE0126
:101ACC00AF012C08B8072D0803110318013E0319A8
:101ADC00702DB9072E0803110318013E0319772D39
:101AEC00BA072F0803110318013E03197E2DBB07FB
:101AFC002608AC002C08F00028080A168A110D20C4
:101B0C000A128A15710883120313BD007008BC00F9
:101B1C003C08AC00AD01AE01AF012C08B2072D089A
:101B2C0003110318013E03199C2DB3072E08031152
:101B3C000318013E0319A32DB4072F080311031832
:101B4C00013E0319AA2DB5073D08AC00AD01AE014D
:101B5C00AF012C08B8072D0803110318013E031917
:101B6C00B82DB9072E0803110318013E0319BF2D18
:101B7C00BA072F0803110318013E0319C62DBB0722
:101B8C000830AC000310B20DB30DB40DB50DAC0B99
:101B9C00C82D2508AC002C08F00028080A168A115C
:101BAC000D200A128A15710883120313BD007008E8
:101BBC00BC003C08AC003D08AD00AE01AF012C08E8
:101BCC00B2072D0803110318013E0319EE2DB307BC
:101BDC002E0803110318013E0319F52DB4072F0825
:101BEC0003110318013E0319FC2DB5072408AC00A2
:101BFC002C08F00029080A168A110D200A128A15E1
:101C0C00710883120313BD007008BC003C08AC00C3
:101C1C003D08AD00AE01AF012C08B2072D08031131
:101C2C000318013E03191B2EB3072E0803110318CA
:101C3C00013E0319222EB4072F0803110318013E8D
:101C4C000319292EB5070830AC000310B20DB30DE3
:101C5C00B40DB50DAC0B2B2E2408AC002C08F000E9
:101C6C0028080A168A110D200A128A157108831287
:101C7C000313BD007008BC003C08AC003D08AD006F
:101C8C00AE01AF012C08B2072D0803110318013E59
:101C9C000319512EB3072E0803110318013E031923
:101CAC00582EB4072F0803110318013E03195F2E99
:101CBC00B5072508AC002C08F0002A080A168A1172
:101CCC000D200A128A15710883120313BD007008C7
:101CDC00BC003C08AC003D08AD00AE01AF012C08C7
:101CEC00B8072D0803110318013E03197E2EB907FE
:101CFC002E0803110318013E0319852EBA072F086D
:101D0C0003110318013E03198C2EBB072608AC00E7
:101D1C002C08F00029080A168A110D200A128A15BF
:101D2C00710883120313BD007008BC003C08AC00A2
:101D3C003D08AD00AE01AF012C08B8072D0803110A
:101D4C000318013E0319AB2EB9072E080311031813
:101D5C00013E0319B22EBA072F0803110318013ED6
:101D6C000319B92EBB072608AC002C08F0002A0872
:101D7C000A168A110D200A128A1571088312031390
:101D8C00BD007008BC003C08AC003D08AD00AE01C5
:101D9C00AF0108300310AC0DAD0DAE0DAF0DFF3E15
:101DAC00031DD02E2C08B8072D0803110318013E73
:101DBC000319E12EB9072E0803110318013E03196C
:101DCC00E82EBA072F0803110318013E0319EF2E52
:101DDC00BB073208AC003308AD003408AE00350840
:101DEC00AF0018300310AF0CAE0CAD0CAC0CFF3EBA
:101DFC00031DF82E2C08B8072D0803110318013EFB
:101E0C000319092FB9072E0803110318013E0319F2
:101E1C00102FBA072F0803110318013E0319172FAF
:101E2C00BB070830AC000310B20DB30DB40DB50DEB
:101E3C00AC0B192F37083607AC00AD01AD0D2C08D3
:101E4C00823EBC002D080318013EFF3EBD004B2F07
:101E5C000130AC000310B80DB90DBA0DBB0DAC0BB5
:101E6C00302FB51F3A2F3B2F3C2F38140130AC00CC
:101E7C000310B20DB30DB40DB50DAC0B3E2FFF30EE
:101E8C00BC070318BD0AFF30BD07BA1F4E2F4F2FDA
:101E9C002E2FB601B51F532F542F702FFF30320544
:101EAC00AC00FF303305AD00FF303405AE007F30A1
:101EBC003505AF002F082E042D042C040319672FB1
:101ECC00682F6B2FB601B60A702F381C6E2F6F2F30
:101EDC00702F682F36080319742F752FA62F013019
:101EEC00B807003003180130B9070030031801306F
:101EFC00BA07003003180130BB073B1C862F872F15
:101F0C00A62F3808AC003908AD003A08AE003B08E3
:101F1C00AF000130B0002F0DAF0CAE0CAD0CAC0C03
:101F2C00B00B912F2F08BB002E08BA002D08B9005A
:101F3C002C08B8000130BC070318BD0A0030BD07DF
:101F4C003D08803AFF0080307F02031DAF2FFF3029
:101F5C003C02031CB22FB32FBE2F7F30831203130E
:101F6C00BB008030BA000030B9000030B800F32F4D
:101F7C00831203133D08803AFF0080307F02031D5B
:101F8C00C92F01303C020318CC2FCD2FD92F003094
:101F9C0083120313BB000030BA000030B9000030CC
:101FAC00B800B101F32F831203133C08AC002C08CA
:101FBC00B700FF30B805FF30B9057F30BA050030E7
:101FCC00BB05371CEA2FEB2FEC2FBA173708AC00E8
:101FDC0003102C0CAD002D08BB003108AC002C08F4
:101FEC00BB043B08A7003A08A6003908A50038082E
:101FFC00A40008008030831603139F002F30850047
:10200C00073089008130831203139F000800F80009
:10201C00F401F5017008F200F3017208F600730880
:10202C00F700781C1A281B2821287608F4070318B7
:10203C00F50A7708F50701300310F60DF70DFF3E92
:10204C00031D22280310F80C7808031D2E282F28B6
:10205C0017287508F1007408F00008000030FC0027
:10206C000030FB000030FA000030F90073087204F5
:10207C00710470040319432844289128FD01FD0ABA
:10208C0054280130F8000310F00DF10DF20DF30D92
:10209C00F80B49280130F8007808FD07F31F572882
:1020AC00582847280130F8000310F90DFA0DFB0DE4
:1020BC00FC0DF80B5A2873087702031D6F28720861
:1020CC007602031D6F2871087502031D6F287008B6
:1020DC007402031C7228732882287008F402710899
:1020EC00031C710FF5027208031C720FF6027308C1
:1020FC00031C730FF702791401300310F30CF20C6C
:10210C00F10CF00CFF3E031D83280130FD02031D72
:10211C009028912858287C08F3007B08F2007A0854
:10212C00F1007908F000080000307005F80000306C
:10213C007105F90080307205FA007F307305FB00E1
:10214C007B087A0479047804031DAD28AE28B628E0
:10215C000030F3000030F2000030F1000030F000ED
:10216C0000307405F80000307505F90080307605F4
:10217C00FA007F307705FB007B087A047904780439
:10218C00031DC928CA28D2280030F7000030F600F9
:10219C000030F5000030F400F31FD528D628FA28BB
:1021AC000030F8000030F9000030FA008030FB00FD
:1021BC007008F8027108031C710FE528E628F90273
:1021CC007208031C720FEB28EC28FA027308031C2C
:1021DC00730FF128F228FB027B08F3007A08F20057
:1021EC007908F1007808F000F71FFD28FE28222955
:1021FC000030F8000030F9000030FA008030FB00AD
:10220C007408F8027508031C750F0D290E29F902C4
:10221C007608031C760F13291429FA027708031C7D
:10222C00770F19291A29FB027B08F7007A08F600A8
:10223C007908F5007808F4008030F3068030F70652
:10224C0077087302031D342976087202031D3429A2
:10225C0075087102031D342974087002031837299C
:10226C0038293A2903103B2903140800F800780890
:10227C000319412942295629F31F45294629562974
:10228C007009FA007109FB007209FC007309FD006A
:10229C00FA0A0319FB0A0319FC0A0319FD0A5E2941
:1022AC007308FD007208FC007108FB007008FA004E
:1022BC007308720471047004031D652966296F2963
:1022CC000030F3000030F2000030F1000030F0007C
:1022DC00F5299630F4007408F90081290130F400D6
:1022EC007408F90701300310FD0CFC0CFB0CFA0C04
:1022FC00FF3E031D7929FE307D05031D86298729A4
:10230C007429A3290130F4007408F9070130FA0785
:10231C00003003180130FB07003003180130FC07B4
:10232C00003003180130FD0701300310FD0CFC0CCC
:10233C00FB0CFA0CFF3E031D9B29FF307D05031D92
:10234C00A829A9298829B5290130F9020130F400FE
:10235C000310FA0DFB0DFC0DFD0DF40BAE29FC1B4F
:10236C00B829B929BF29023079020318BE29BF291F
:10237C00AA297918C229C329CB29FF30FA05FF30C5
:10238C00FB057F30FC05FF30FD050310F90C7908C7
:10239C00F400F501F601F70118300310F40DF50DFA
:1023AC00F60DF70DFF3E031DD3297408FA047508CA
:1023BC00FB047608FC047708FD0478080319E72968
:1023CC00E829ED29F31FEB29EC29ED29FD177D08F0
:1023DC00F3007C08F2007B08F1007A08F00008009A
:1023EC000A168A1100200A168A110A168A159C27C9
:1023FC000A168A1100300A168A1557260A168A11EF
:10240C0083120313210883160313E70083120313AB
:10241C00200883160313E6003B3083120313A70036
:10242C00A130A600DF30A500B930A4008316031339
:10243C006608F0006708F100F201F30100300A169B
:10244C008A113C210A168A11730883120313AB00FC
:10245C007208AA007108A9007008A8000A128A154F
:10246C009F240A168A118312031327088316031359
:10247C00E50083120313260883160313E40083126A
:10248C000313250883160313E30083120313240894
:10249C0083160313E200403083120313A70040306D
:1024AC00A6000030A5000030A400831603136508B5
:1024BC0083120313AB0083160313640883120313F4
:1024CC00AA0083160313630883120313A90083164F
:1024DC000313620883120313A8000A128A159F249F
:1024EC000A168A1183120313270883160313E100BB
:1024FC0083120313260883160313E00083120313BD
:10250C00250883160313DF00831203132408831694
:10251C000313DE00913083120313EE006E08831652
:10252C000313A0006108A4006008A3005F08A200C8
:10253C005E08A100C5300A128A1173200A168A118E
:10254C00C5300A168A15AE240A168A11002A0A12F8
:10255C008A1100287008F8007108F9007208FA0056
:10256C000310790D7A0DFB007B0883120313A50071
:10257C002508031DC22AC32ACC2A0030F3000030E0
:10258C00F2000030F1000030F0006C2B7408F80001
:10259C007508F9007608FA000310790D7A0DFB0026
:1025AC007B08A4002408031DDC2ADD2ADE2AC32AAA
:1025BC00F117FF30F005FF30F1050030F205F5178B
:1025CC00FF30F405FF30F5050030F6050030A300B0
:1025DC000030A2000030A1000030A0007F30A50226
:1025EC0098302407F8007808A5021830F80078080D
:1025FC00A4000130F8000310A00DA10DA20DA30D35
:10260C00F80B012B76087202031D122B7508710250
:10261C00031D122B74087002031C152B162B212B77
:10262C007408F0027508031C750FF1027608031C80
:10263C00760AF202201401300310F00DF10DF20DA8
:10264C00FF3E031D222B0130A402031D2E2B2F2B2A
:10265C00FF2AA51F322B332B4D2B2508803A973E92
:10266C000318392B3A2B3B2BC32A01300310A30C34
:10267C00A20CA10CA00CFF3E031D3C2B0130F8005A
:10268C007808A507031D4B2B4C2B3B2B642B1830C8
:10269C002502031C522B532B5F2BC32A0130F8004D
:1026AC000310A00DA10DA20DA30DF80B562B01309C
:1026BC00A5022508031D632B642B542B2308F30060
:1026CC002208F2002108F1002008F0000800831213
:1026DC000313D1006E305102031C752B762B832C07
:1026EC003F30A7000030A6000030A5000030A40049
:1026FC006430F6000030F7005108C200C3014208F4
:10270C00F8004308F9000A168A1513260A168A11CE
:10271C00760883120313C40001300310C40DFF3E6E
:10272C00031D932B0310440D7D3E84000A168A155D
:10273C0000200A168A11C5000A168A1500200A16EE
:10274C008A11C6000A168A1500200A168A11C700BB
:10275C000A168A1500200A168A11C8004808AB0010
:10276C004708AA004608A9004508A8000A128A15BD
:10277C009F240A168A11831203132708D0002608F7
:10278C00CF002508CE002408CD000A30F60000301A
:10279C00F7005108C200C3014208F2004308F300DD
:1027AC006430F0000030F1000A168A15D9250A169B
:1027BC008A117108F9007008F8000A168A15132698
:1027CC000A168A11760883120313C4000130031011
:1027DC00C40DFF3E031DED2B0310440D593E840028
:1027EC000A168A1500200A168A11C5000A168A15BF
:1027FC0000200A168A11C6000A168A1500200A162D
:10280C008A11C7000A168A1500200A168A11C800F8
:10281C004808A7004708A6004608A5004508A400DC
:10282C005008AB004F08AA004E08A9004D08A8009C
:10283C000A128A159F240A168A1183120313270879
:10284C00CC002608CB002508CA002408C9000A3091
:10285C00F0000030F1005108C200C3014208F20040
:10286C004308F3000A168A15D9250A168A1170082E
:10287C0083120313C40001300310C40DFF3E031D6B
:10288C00422C0310440D353E84000A168A15002094
:10289C000A168A11C5000A168A1500200A168A1112
:1028AC00C6000A168A1500200A168A11C7000A16D5
:1028BC008A1500200A168A11C8004808A700470884
:1028CC00A6004608A5004508A4004C08AB004B0820
:1028DC00AA004A08A9004908A8000A128A159F24D0
:1028EC000A168A11831203132708C1002608C00098
:1028FC002508BF002408BE00772D0B305102031CA5
:10290C00882C892C342D3F30A7000030A6000030D5
:10291C00A5000030A4000A30F6000030F700510882
:10292C00C200C3014208F8004308F9000A168A15D0
:10293C0013260A168A11760883120313C400013079
:10294C000310C40DFF3E031DA62C0310440D593E6D
:10295C0084000A168A1500200A168A11C5000A1668
:10296C008A1500200A168A11C6000A168A1500203C
:10297C000A168A11C7000A168A1500200A168A112F
:10298C00C8004808AB004708AA004608A90045083B
:10299C00A8000A128A159F240A168A11831203139F
:1029AC002708D0002608CF002508CE002408CD002B
:1029BC000A30F0000030F1005108C200C301420897
:1029CC00F2004308F3000A168A15D9250A168A1153
:1029DC00700883120313C40001300310C40DFF3EB2
:1029EC00031DF32C0310440D353E84000A168A1582
:1029FC0000200A168A11C5000A168A1500200A162C
:102A0C008A11C6000A168A1500200A168A11C700F8
:102A1C000A168A1500200A168A11C8004808A70051
:102A2C004708A6004608A5004508A4005008AB00BE
:102A3C004F08AA004E08A9004D08A8000A128A15D2
:102A4C009F240A168A11831203132708C100260833
:102A5C00C0002508BF002408BE00772D3F30A7001A
:102A6C000030A6000030A5000030A4005108C200C0
:102A7C0001300310C20DFF3E031D3F2D0310420D0C
:102A8C00353E84000A168A1500200A168A11C300E6
:102A9C000A168A1500200A168A11C4000A168A150D
:102AAC0000200A168A11C5000A168A1500200A167B
:102ABC008A11C6004608AB004508AA004408A900C4
:102ACC004308A8000A128A159F240A168A11831239
:102ADC0003132708C1002608C0002508BF002408DE
:102AEC00BE0008008312031355088039DA005A0817
:102AFC00E2005508DA005A07DB005B08E400D41F3B
:102B0C00882D892D8A2D6414640803198E2D8F2D20
:102B1C009F2D640A031D932D942D9C2D0030D50000
:102B2C000030D4000030D3000030D200D417D501CF
:102B3C00A72D0030D5000030D4000030D300003079
:102B4C00D20059088039DA005A08E300630862069B
:102B5C000319B12DB22DB32D62175908DA005A079B
:102B6C00DB005B08E300D81FBC2DBD2DBE2D63140C
:102B7C0063080319C22DC32DD32D630A031DC72D62
:102B8C00C82DD02D0030D9000030D8000030D7002F
:102B9C000030D600D817D901DB2D0030D900003019
:102BAC00D8000030D7000030D60064086302031848
:102BBC00E02DE12D252E621FE42DE52DE92D803031
:102BCC00DA005A08E2066408DA005A08E5006308DD
:102BDC00DA005A08E4006508DA005A08E3005208E3
:102BEC00DA005A08E5005608DA005A08D2006508DF
:102BFC00DA005A08D6005308DA005A08E5005708DC
:102C0C00DA005A08D3006508DA005A08D7005408CD
:102C1C00DA005A08E5005808DA005A08D4006508AA
:102C2C00DA005A08D8005508DA005A08E5005908A5
:102C3C00DA005A08D5006508DA005A08D900E5010F
:102C4C006308DA00DB015B08DD0064085A02DC0073
:102C5C00031CDD035D08803AFF0080307F02031DFA
:102C6C00392E1A305C02031C3C2E3D2E7A2E831218
:102C7C0003135508540453045204031D462E482EC6
:102C8C000130492E0030DA005A08E5000030D5003A
:102C9C000030D4000030D3000030D2006308DA00DA
:102CAC005A08E400822E651C5C2E5D2E662E65088B
:102CBC00DA0003105A0C0138DB005B08E500682EC3
:102CCC000310E50C521C6B2E6C2E6D2EE51701308B
:102CDC00DA00550DD50CD40CD30CD20CDA0B6F2EAC
:102CEC000130DA005A08E407831203136308640204
:102CFC00031C812E822E592E621B852E862ED12EE0
:102D0C006408031D8A2E8B2E942E0030D5000030C3
:102D1C00D4000030D3000030D200FF2F5608D20769
:102D2C00570803110318013E03199D2ED3075808A9
:102D3C0003110318013E0319A42ED40759080311DB
:102D4C000318013E0319AB2ED507551CAE2EAF2E22
:102D5C00852F651CB22EB32EBC2E6508DA0003102D
:102D6C005A0C0138DB005B08E500BE2E0310E50CA5
:102D7C00521CC12EC22EC32EE5170130DA00550DA0
:102D8C00D50CD40CD30CD20CDA0BC52E0130DA00D6
:102D9C005A08E407852F5508803AFF005908803AF5
:102DAC007F02031DE32E58085402031DE32E57081F
:102DBC005302031DE32E560852020318E62EE72E8B
:102DCC003F2FFF30DA00FF30DB00FF30DC00FF303C
:102DDC00DD005608DE005708DF005808E0005908EF
:102DEC00E1005208DE025308031C530FFE2EFF2E87
:102DFC00DF025408031C540F042F052FE002550862
:102E0C00031C550F0A2F0B2FE1025E08DA075F082F
:102E1C0003185F0F122F132FDB0760080318600FC6
:102E2C00182F192FDC0761080318610ADD075D08EC
:102E3C00D5005C08D4005B08D3005A08D20080305F
:102E4C00DA005A08E206E509E50A6508031D2F2F8A
:102E5C00302F4D2F0130D207003003180130D3072B
:102E6C00003003180130D407003003180130D507A7
:102E7C004D2F5608D2025708031C570FD30258087F
:102E8C00031C580FD4025908031C590FD5025508BE
:102E9C00540453045204031D542F552F812F6508DD
:102EAC00031D592F5A2F812F0030D5000030D4002C
:102EBC000030D3000030D200FF2F0130DA000310B5
:102ECC00D20DD30DD40DD50DDA0B652FE51F6F2F59
:102EDC00702F712F5214651C742F752F782F0314BB
:102EEC00E50D7A2F0310E50D640803197E2F7F2F53
:102EFC00812F0130E402D41F842F852F632FE3012F
:102F0C00E51F892F8A2F982F65087F3903198F2F7A
:102F1C00902F932FE301E30A982F521C962F972F93
:102F2C00982F902F630803199C2F9D2FD12F0130C0
:102F3C00D207003003180130D307003003180130DA
:102F4C00D407003003180130D507551CAE2FAF2F16
:102F5C00D12F5208DA005308DB005408DC00550866
:102F6C00DD000130DE005D0DDD0CDC0CDB0CDA0C61
:102F7C00DE0BB92F5D08D5005C08D4005B08D300CC
:102F8C005A08D200640A0319CC2FCD2FD12F01304F
:102F9C00DA005A08E407640A0319D52FD62FDB2F61
:102FAC006408031DDA2FDB2FE92F0030D500003029
:102FBC00D4000030D3000030D2006408031DE72F8A
:102FCC00E82FE92FE201641CEC2FED2FEF2FD41723
:102FDC00F32F7F30DA005A08D4056408DA000310A6
:102FEC005A0CDB005B08D500E21FFD2FFE2FFF2FD4
:102FFC00D517080018308A000408840A82070034A8
:10300C000034003480343F340034003420344134F4
:10301C0000340034C8344234003400347A3444343C
:10302C00003440341C34463400345034C3344734F8
:10303C0000342434743449348034963418344B348A
:10304C002034BC34BE344C3428346B346E344E349F
:10305C00F934023415345034EC347834AD346034F3
:10306C00CA34F234493471340034003480343F347F
:10307C00CD34CC34CC343D340A34D73423343C34C2
:10308C006F34123483343A341734B734D13438347F
:10309C00AC34C53427343734BD3437348634353406
:1030AC009534BF34D63433347734CC342B34323477
:1030BC005F34703489343034FF34E634DB342E34EE
:1030CC000834E5343C341E3460344234A2340D34BC
:1030DC0001340034003400340A3400340034003439
:1030EC006434003400340034E834033400340034E5
:1030FC001034273400340034A034863401340034C6
:10310C00403442340F3400348034963498340034D4
:10311C000034E134F53405340034CA349A343B3489
:10312C00253432342E343234663456346F346C34A5
:06313C007434733400340A
:1039460073087204710470040319AA2CAB2CAD2CF5
:103956008030F3060800F60080300A168A156625C0
:103966000A168A1576080A168A15CE240A168A15A4
:103976000800F100F0013A3071020318C32CC42C80
:10398600CC2C30307102031CC92CCA2CCC2CF00173
:10399600F00A700C0800F500DC2C7508840000089D
:1039A6000A168A152E250A168A150130F40074089F
:1039B600F5077508840083130008031DE32CE42C27
:1039C600D02C0800803083120313E9066D08D50059
:1039D6006C08D4006B08D3006A08D2006908D900C5
:1039E6006808D8006708D7006608D6000A168A1144
:1039F60078250A168A15831203135508E900540818
:103A0600E8005308E7005208E6000800F401F50153
:103A1600701C0E2D0F2D152D7208F4070318F50ACC
:103A26007308F50701300310F20DF30DFF3E031D79
:103A3600162D01300310F10CF00CFF3E031D1D2D59
:103A460070087104031D282D292D0B2D7508F10012
:103A56007408F0000800F2007208F039F0007008EF
:103A6600F3007308831203138600861406110614E6
:103A76000730F1007D30F000F00B3F2DF10B3F2DAC
:103A86008312031306107208F00003300310F00DC2
:103A9600FF3E031D492D0310700DF039F10071082A
:103AA600F300730886008614061106144130F100EF
:103AB600EE30F000F00B5D2DF10B5D2D0000831252
:103AC600031306100800F2007208F039F0007008BF
:103AD600F30073088312031386008610061106147A
:103AE6004130F100EE30F000F00B772DF10B772D21
:103AF60000008312031306107208F000033003104F
:103B0600F00DFF3E031D822D0310700DF039F100FC
:103B16007108F300730886008610061106144130FA
:103B2600F100EE30F000F00B962DF10B962D000013
:103B36008312031306100800F500C730F20072085E
:103B4600831203139F057508F20002300310F20D6D
:103B5600FF3E031DA92D0310720DF30073089F0489
:103B66004130F300EE30F200F20BB72DF30BB72D18
:103B76000000831203131F150330F4008A30F3008C
:103B86005530F200F20BC52DF30BC52DF40BC52DE8
:103B9600CC2D831203131F19D12DD22DCC2D1E0827
:103BA600F100831603131E08F00008007008710464
:103BB6000319DE2DDF2D0E2EF501F50AED2D013050
:103BC6000310F00DF10DFF3E031DE32D0130F4004F
:103BD6007408F507F11FF02DF12DE22D710873021F
:103BE600031DF72D70087202031CFA2DFB2D012E02
:103BF6007008F2027108031CF303F302013003108C
:103C0600F10CF00CFF3E031D022E0130F502031DE0
:103C16000D2E0E2EF12D7308F1007208F00008002B
:103C2600FB01FC017608770403191A2E1B2E522E6F
:103C3600FD01FD0A292E01300310F60DF70DFF3E9A
:103C4600031D1F2E0130FA007A08FD07F71F2C2EE0
:103C56002D2E1E2E01300310FB0DFC0DFF3E031D05
:103C66002E2E77087902031D3A2E76087802031C59
:103C76003D2E3E2E452E7608F8027708031CF903E2
:103C8600F9027B1401300310F70CF60CFF3E031DFE
:103C9600462E0130FD02031D512E522E2D2E7C087C
:103CA600F7007B08F600080083120313A600A7019D
:103CB600A801A901AA01842E26080A168A159F259D
:103CC6000A168A15710883120313A5007008A4004A
:103CD6002408A7070318A80A2508A8072130831275
:103CE6000313A3007530A200A20B772EA30B772E29
:103CF6007C2E013083120313A9070318AA0A003089
:103D0600AA0700302A020A3003192902031C8C2E46
:103D16008D2E5F2E0A30F6000030F7002808F900D5
:103D26002708F8000A168A1513260A168A15770830
:103D360083120313A1007608A00008000030700566
:103D4600F80000307105F90080307205FA007F3006
:103D56007305FB007B087A0479047804031DB42EEE
:103D6600B52EBD2E0030F3000030F2000030F10019
:103D76000030F00000307405F80000307505F900D9
:103D860080307605FA007F307705FB007B087A04E1
:103D960079047804031DD02ED12ED92E0030F700D9
:103DA6000030F6000030F5000030F40077087306A6
:103DB600031DE72E76087206031DE72E75087106A9
:103DC600031DE72E740870060319EA2EEB2EED2E5E
:103DD6000310EE2E031408007308720471047004B5
:103DE6000319F62EF72E3A2FF901F90A072F01309B
:103DF600F8000310F00DF10DF20DF30DF80BFC2E8B
:103E06000130F8007808F907F31F0A2F0B2FFA2E56
:103E160073087702031D192F72087602031D192FE6
:103E260071087502031D192F70087402031C1C2FDC
:103E36001D2F2B2F7008F4027108031C710FF50259
:103E46007208031C720FF6027308031C730FF70245
:103E560001300310F30CF20CF10CF00CFF3E031DC5
:103E66002C2F0130F902031D392F3A2F0B2F77081B
:103E7600F3007608F2007508F1007408F0000800F7
:103E8600F601F31F472F482F4F2FF209F309F20AC5
:103E96000319F30AF601F60AF11F522F532F582F72
:103EA600F009F109F00A0319F10A700871040319FF
:103EB6005D2F5E2F8D2FF501F50A6C2F0130031053
:103EC600F00DF10DFF3E031D622F0130F400740862
:103ED600F507F11F6F2F702F612F71087302031DF5
:103EE600762F70087202031C792F7A2F802F7008A4
:103EF600F2027108031CF303F30201300310F10C04
:103F0600F00CFF3E031D812F0130F502031D8C2F9F
:103F16008D2F702F76080319912F922F972FF20964
:103F2600F309F20A0319F30A7308F1007208F000A4
:103F360008008316031386018312031386010330D8
:103F4600F6008A30F5005530F400F40BA82FF50B77
:103F5600A82FF60BA82FAF2F8312031306100730D6
:103F6600F6005830F5005930F400F40BB82FF50B75
:103F7600B82FF60BB82FBF2F02300A168A15662502
:103F86000A168A150730F6005830F5005930F40045
:103F9600F40BCB2FF50BCB2FF60BCB2FD22F2830D4
:103FA6000A168A1566250A168A156230F5006530E6
:103FB600F400F40BDC2FF50BDC2FE12F0C300A1686
:103FC6008A1566250A168A156230F5006530F400F2
:103FD600F40BEB2FF50BEB2FF02F06300A168A1594
:103FE60066250A168A156230F5006530F400F40B72
:0A3FF600FA2FF50BFA2FFF2F080039
:02400E003A3F37
:00000001FF
